{
  "_format": "hh-sol-artifact-1",
  "contractName": "DummyUSDC",
  "sourceName": "contracts/DummyUSDC.sol",
  "abi": [
    {
      "inputs": [
        {
          "internalType": "address",
          "name": "initialOwner",
          "type": "address"
        }
      ],
      "stateMutability": "nonpayable",
      "type": "constructor"
    },
    {
      "inputs": [
        {
          "internalType": "address",
          "name": "spender",
          "type": "address"
        },
        {
          "internalType": "uint256",
          "name": "allowance",
          "type": "uint256"
        },
        {
          "internalType": "uint256",
          "name": "needed",
          "type": "uint256"
        }
      ],
      "name": "ERC20InsufficientAllowance",
      "type": "error"
    },
    {
      "inputs": [
        {
          "internalType": "address",
          "name": "sender",
          "type": "address"
        },
        {
          "internalType": "uint256",
          "name": "balance",
          "type": "uint256"
        },
        {
          "internalType": "uint256",
          "name": "needed",
          "type": "uint256"
        }
      ],
      "name": "ERC20InsufficientBalance",
      "type": "error"
    },
    {
      "inputs": [
        {
          "internalType": "address",
          "name": "approver",
          "type": "address"
        }
      ],
      "name": "ERC20InvalidApprover",
      "type": "error"
    },
    {
      "inputs": [
        {
          "internalType": "address",
          "name": "receiver",
          "type": "address"
        }
      ],
      "name": "ERC20InvalidReceiver",
      "type": "error"
    },
    {
      "inputs": [
        {
          "internalType": "address",
          "name": "sender",
          "type": "address"
        }
      ],
      "name": "ERC20InvalidSender",
      "type": "error"
    },
    {
      "inputs": [
        {
          "internalType": "address",
          "name": "spender",
          "type": "address"
        }
      ],
      "name": "ERC20InvalidSpender",
      "type": "error"
    },
    {
      "inputs": [
        {
          "internalType": "address",
          "name": "owner",
          "type": "address"
        }
      ],
      "name": "OwnableInvalidOwner",
      "type": "error"
    },
    {
      "inputs": [
        {
          "internalType": "address",
          "name": "account",
          "type": "address"
        }
      ],
      "name": "OwnableUnauthorizedAccount",
      "type": "error"
    },
    {
      "anonymous": false,
      "inputs": [
        {
          "indexed": true,
          "internalType": "address",
          "name": "owner",
          "type": "address"
        },
        {
          "indexed": true,
          "internalType": "address",
          "name": "spender",
          "type": "address"
        },
        {
          "indexed": false,
          "internalType": "uint256",
          "name": "value",
          "type": "uint256"
        }
      ],
      "name": "Approval",
      "type": "event"
    },
    {
      "anonymous": false,
      "inputs": [
        {
          "indexed": true,
          "internalType": "address",
          "name": "previousOwner",
          "type": "address"
        },
        {
          "indexed": true,
          "internalType": "address",
          "name": "newOwner",
          "type": "address"
        }
      ],
      "name": "OwnershipTransferred",
      "type": "event"
    },
    {
      "anonymous": false,
      "inputs": [
        {
          "indexed": true,
          "internalType": "address",
          "name": "from",
          "type": "address"
        },
        {
          "indexed": true,
          "internalType": "address",
          "name": "to",
          "type": "address"
        },
        {
          "indexed": false,
          "internalType": "uint256",
          "name": "value",
          "type": "uint256"
        }
      ],
      "name": "Transfer",
      "type": "event"
    },
    {
      "inputs": [
        {
          "internalType": "address",
          "name": "owner",
          "type": "address"
        },
        {
          "internalType": "address",
          "name": "spender",
          "type": "address"
        }
      ],
      "name": "allowance",
      "outputs": [
        {
          "internalType": "uint256",
          "name": "",
          "type": "uint256"
        }
      ],
      "stateMutability": "view",
      "type": "function"
    },
    {
      "inputs": [
        {
          "internalType": "address",
          "name": "spender",
          "type": "address"
        },
        {
          "internalType": "uint256",
          "name": "value",
          "type": "uint256"
        }
      ],
      "name": "approve",
      "outputs": [
        {
          "internalType": "bool",
          "name": "",
          "type": "bool"
        }
      ],
      "stateMutability": "nonpayable",
      "type": "function"
    },
    {
      "inputs": [
        {
          "internalType": "address",
          "name": "account",
          "type": "address"
        }
      ],
      "name": "balanceOf",
      "outputs": [
        {
          "internalType": "uint256",
          "name": "",
          "type": "uint256"
        }
      ],
      "stateMutability": "view",
      "type": "function"
    },
    {
      "inputs": [],
      "name": "decimals",
      "outputs": [
        {
          "internalType": "uint8",
          "name": "",
          "type": "uint8"
        }
      ],
      "stateMutability": "view",
      "type": "function"
    },
    {
      "inputs": [
        {
          "internalType": "address",
          "name": "account",
          "type": "address"
        }
      ],
      "name": "getBalanceUSDC",
      "outputs": [
        {
          "internalType": "uint256",
          "name": "",
          "type": "uint256"
        }
      ],
      "stateMutability": "view",
      "type": "function"
    },
    {
      "inputs": [],
      "name": "getTotalSupplyUSDC",
      "outputs": [
        {
          "internalType": "uint256",
          "name": "",
          "type": "uint256"
        }
      ],
      "stateMutability": "view",
      "type": "function"
    },
    {
      "inputs": [
        {
          "internalType": "address",
          "name": "to",
          "type": "address"
        },
        {
          "internalType": "uint256",
          "name": "amount",
          "type": "uint256"
        }
      ],
      "name": "mint",
      "outputs": [],
      "stateMutability": "nonpayable",
      "type": "function"
    },
    {
      "inputs": [
        {
          "internalType": "address[]",
          "name": "recipients",
          "type": "address[]"
        },
        {
          "internalType": "uint256[]",
          "name": "amounts",
          "type": "uint256[]"
        }
      ],
      "name": "mintBatch",
      "outputs": [],
      "stateMutability": "nonpayable",
      "type": "function"
    },
    {
      "inputs": [],
      "name": "name",
      "outputs": [
        {
          "internalType": "string",
          "name": "",
          "type": "string"
        }
      ],
      "stateMutability": "view",
      "type": "function"
    },
    {
      "inputs": [],
      "name": "owner",
      "outputs": [
        {
          "internalType": "address",
          "name": "",
          "type": "address"
        }
      ],
      "stateMutability": "view",
      "type": "function"
    },
    {
      "inputs": [],
      "name": "renounceOwnership",
      "outputs": [],
      "stateMutability": "nonpayable",
      "type": "function"
    },
    {
      "inputs": [],
      "name": "symbol",
      "outputs": [
        {
          "internalType": "string",
          "name": "",
          "type": "string"
        }
      ],
      "stateMutability": "view",
      "type": "function"
    },
    {
      "inputs": [],
      "name": "totalSupply",
      "outputs": [
        {
          "internalType": "uint256",
          "name": "",
          "type": "uint256"
        }
      ],
      "stateMutability": "view",
      "type": "function"
    },
    {
      "inputs": [
        {
          "internalType": "address",
          "name": "to",
          "type": "address"
        },
        {
          "internalType": "uint256",
          "name": "value",
          "type": "uint256"
        }
      ],
      "name": "transfer",
      "outputs": [
        {
          "internalType": "bool",
          "name": "",
          "type": "bool"
        }
      ],
      "stateMutability": "nonpayable",
      "type": "function"
    },
    {
      "inputs": [
        {
          "internalType": "address",
          "name": "from",
          "type": "address"
        },
        {
          "internalType": "address",
          "name": "to",
          "type": "address"
        },
        {
          "internalType": "uint256",
          "name": "value",
          "type": "uint256"
        }
      ],
      "name": "transferFrom",
      "outputs": [
        {
          "internalType": "bool",
          "name": "",
          "type": "bool"
        }
      ],
      "stateMutability": "nonpayable",
      "type": "function"
    },
    {
      "inputs": [
        {
          "internalType": "address",
          "name": "newOwner",
          "type": "address"
        }
      ],
      "name": "transferOwnership",
      "outputs": [],
      "stateMutability": "nonpayable",
      "type": "function"
    }
  ],
  "bytecode": "0x60806040523480156200001157600080fd5b50604051620012d3380380620012d38339810160408190526200003491620002c7565b806040518060400160405280600a81526020016944756d6d79205553444360b01b81525060405180604001604052806005815260200164645553444360d81b81525081600390816200008791906200039e565b5060046200009682826200039e565b5050506001600160a01b038116620000c957604051631e4fbdf760e01b8152600060048201526024015b60405180910390fd5b620000d48162000104565b50620000fd81620000e86006600a6200057f565b620000f790620f424062000590565b62000156565b50620005c0565b600580546001600160a01b038381166001600160a01b0319831681179093556040519116919082907f8be0079c531659141344cd1fd0a4f28419497f9722a3daafe3b4186f6b6457e090600090a35050565b6001600160a01b038216620001825760405163ec442f0560e01b815260006004820152602401620000c0565b620001906000838362000194565b5050565b6001600160a01b038316620001c3578060026000828254620001b79190620005aa565b90915550620002379050565b6001600160a01b03831660009081526020819052604090205481811015620002185760405163391434e360e21b81526001600160a01b03851660048201526024810182905260448101839052606401620000c0565b6001600160a01b03841660009081526020819052604090209082900390555b6001600160a01b038216620002555760028054829003905562000274565b6001600160a01b03821660009081526020819052604090208054820190555b816001600160a01b0316836001600160a01b03167fddf252ad1be2c89b69c2b068fc378daa952ba7f163c4a11628f55a4df523b3ef83604051620002ba91815260200190565b60405180910390a3505050565b600060208284031215620002da57600080fd5b81516001600160a01b0381168114620002f257600080fd5b9392505050565b634e487b7160e01b600052604160045260246000fd5b600181811c908216806200032457607f821691505b6020821081036200034557634e487b7160e01b600052602260045260246000fd5b50919050565b601f8211156200039957600081815260208120601f850160051c81016020861015620003745750805b601f850160051c820191505b81811015620003955782815560010162000380565b5050505b505050565b81516001600160401b03811115620003ba57620003ba620002f9565b620003d281620003cb84546200030f565b846200034b565b602080601f8311600181146200040a5760008415620003f15750858301515b600019600386901b1c1916600185901b17855562000395565b600085815260208120601f198616915b828110156200043b578886015182559484019460019091019084016200041a565b50858210156200045a5787850151600019600388901b60f8161c191681555b5050505050600190811b01905550565b634e487b7160e01b600052601160045260246000fd5b600181815b80851115620004c1578160001904821115620004a557620004a56200046a565b80851615620004b357918102915b93841c939080029062000485565b509250929050565b600082620004da5750600162000579565b81620004e95750600062000579565b81600181146200050257600281146200050d576200052d565b600191505062000579565b60ff8411156200052157620005216200046a565b50506001821b62000579565b5060208310610133831016604e8410600b841016171562000552575081810a62000579565b6200055e838362000480565b80600019048211156200057557620005756200046a565b0290505b92915050565b6000620002f260ff841683620004c9565b80820281158282048414176200057957620005796200046a565b808201808211156200057957620005796200046a565b610d0380620005d06000396000f3fe608060405234801561001057600080fd5b50600436106101005760003560e01c8063773f021d11610097578063a9059cbb11610066578063a9059cbb14610209578063dd62ed3e1461021c578063e66e070f14610255578063f2fde38b1461025d57600080fd5b8063773f021d146101c05780637c88e3d9146101d35780638da5cb5b146101e657806395d89b411461020157600080fd5b8063313ce567116100d3578063313ce5671461016b57806340c10f191461017a57806370a082311461018f578063715018a6146101b857600080fd5b806306fdde0314610105578063095ea7b31461012357806318160ddd1461014657806323b872dd14610158575b600080fd5b61010d610270565b60405161011a919061086b565b60405180910390f35b6101366101313660046108d5565b610302565b604051901515815260200161011a565b6002545b60405190815260200161011a565b6101366101663660046108ff565b61031c565b6040516006815260200161011a565b61018d6101883660046108d5565b610340565b005b61014a61019d36600461093b565b6001600160a01b031660009081526020819052604090205490565b61018d610356565b61014a6101ce36600461093b565b61036a565b61018d6101e1366004610a33565b61039b565b6005546040516001600160a01b03909116815260200161011a565b61010d610451565b6101366102173660046108d5565b610460565b61014a61022a366004610af3565b6001600160a01b03918216600090815260016020908152604080832093909416825291909152205490565b61014a61046e565b61018d61026b36600461093b565b61048e565b60606003805461027f90610b26565b80601f01602080910402602001604051908101604052809291908181526020018280546102ab90610b26565b80156102f85780601f106102cd576101008083540402835291602001916102f8565b820191906000526020600020905b8154815290600101906020018083116102db57829003601f168201915b5050505050905090565b6000336103108185856104cc565b60019150505b92915050565b60003361032a8582856104d9565b610335858585610558565b506001949350505050565b6103486105b7565b61035282826105e4565b5050565b61035e6105b7565b610368600061061a565b565b60006103786006600a610c5a565b6001600160a01b0383166000908152602081905260409020546103169190610c69565b6103a36105b7565b80518251146103f25760405162461bcd60e51b8152602060048201526016602482015275082e4e4c2f2e640d8cadccee8d040dad2e6dac2e8c6d60531b60448201526064015b60405180910390fd5b60005b825181101561044c5761043a83828151811061041357610413610c8b565b602002602001015183838151811061042d5761042d610c8b565b60200260200101516105e4565b8061044481610ca1565b9150506103f5565b505050565b60606004805461027f90610b26565b600033610310818585610558565b600061047c6006600a610c5a565b6002546104899190610c69565b905090565b6104966105b7565b6001600160a01b0381166104c057604051631e4fbdf760e01b8152600060048201526024016103e9565b6104c98161061a565b50565b61044c838383600161066c565b6001600160a01b03838116600090815260016020908152604080832093861683529290522054600019811015610552578181101561054357604051637dc7a0d960e11b81526001600160a01b038416600482015260248101829052604481018390526064016103e9565b6105528484848403600061066c565b50505050565b6001600160a01b03831661058257604051634b637e8f60e11b8152600060048201526024016103e9565b6001600160a01b0382166105ac5760405163ec442f0560e01b8152600060048201526024016103e9565b61044c838383610741565b6005546001600160a01b031633146103685760405163118cdaa760e01b81523360048201526024016103e9565b6001600160a01b03821661060e5760405163ec442f0560e01b8152600060048201526024016103e9565b61035260008383610741565b600580546001600160a01b038381166001600160a01b0319831681179093556040519116919082907f8be0079c531659141344cd1fd0a4f28419497f9722a3daafe3b4186f6b6457e090600090a35050565b6001600160a01b0384166106965760405163e602df0560e01b8152600060048201526024016103e9565b6001600160a01b0383166106c057604051634a1406b160e11b8152600060048201526024016103e9565b6001600160a01b038085166000908152600160209081526040808320938716835292905220829055801561055257826001600160a01b0316846001600160a01b03167f8c5be1e5ebec7d5bd14f71427d1e84f3dd0314c0f7b2291e5b200ac8c7c3b9258460405161073391815260200190565b60405180910390a350505050565b6001600160a01b03831661076c5780600260008282546107619190610cba565b909155506107de9050565b6001600160a01b038316600090815260208190526040902054818110156107bf5760405163391434e360e21b81526001600160a01b038516600482015260248101829052604481018390526064016103e9565b6001600160a01b03841660009081526020819052604090209082900390555b6001600160a01b0382166107fa57600280548290039055610819565b6001600160a01b03821660009081526020819052604090208054820190555b816001600160a01b0316836001600160a01b03167fddf252ad1be2c89b69c2b068fc378daa952ba7f163c4a11628f55a4df523b3ef8360405161085e91815260200190565b60405180910390a3505050565b600060208083528351808285015260005b818110156108985785810183015185820160400152820161087c565b506000604082860101526040601f19601f8301168501019250505092915050565b80356001600160a01b03811681146108d057600080fd5b919050565b600080604083850312156108e857600080fd5b6108f1836108b9565b946020939093013593505050565b60008060006060848603121561091457600080fd5b61091d846108b9565b925061092b602085016108b9565b9150604084013590509250925092565b60006020828403121561094d57600080fd5b610956826108b9565b9392505050565b634e487b7160e01b600052604160045260246000fd5b604051601f8201601f1916810167ffffffffffffffff8111828210171561099c5761099c61095d565b604052919050565b600067ffffffffffffffff8211156109be576109be61095d565b5060051b60200190565b600082601f8301126109d957600080fd5b813560206109ee6109e9836109a4565b610973565b82815260059290921b84018101918181019086841115610a0d57600080fd5b8286015b84811015610a285780358352918301918301610a11565b509695505050505050565b60008060408385031215610a4657600080fd5b823567ffffffffffffffff80821115610a5e57600080fd5b818501915085601f830112610a7257600080fd5b81356020610a826109e9836109a4565b82815260059290921b84018101918181019089841115610aa157600080fd5b948201945b83861015610ac657610ab7866108b9565b82529482019490820190610aa6565b96505086013592505080821115610adc57600080fd5b50610ae9858286016109c8565b9150509250929050565b60008060408385031215610b0657600080fd5b610b0f836108b9565b9150610b1d602084016108b9565b90509250929050565b600181811c90821680610b3a57607f821691505b602082108103610b5a57634e487b7160e01b600052602260045260246000fd5b50919050565b634e487b7160e01b600052601160045260246000fd5b600181815b80851115610bb1578160001904821115610b9757610b97610b60565b80851615610ba457918102915b93841c9390800290610b7b565b509250929050565b600082610bc857506001610316565b81610bd557506000610316565b8160018114610beb5760028114610bf557610c11565b6001915050610316565b60ff841115610c0657610c06610b60565b50506001821b610316565b5060208310610133831016604e8410600b8410161715610c34575081810a610316565b610c3e8383610b76565b8060001904821115610c5257610c52610b60565b029392505050565b600061095660ff841683610bb9565b600082610c8657634e487b7160e01b600052601260045260246000fd5b500490565b634e487b7160e01b600052603260045260246000fd5b600060018201610cb357610cb3610b60565b5060010190565b8082018082111561031657610316610b6056fea26469706673582212204b74dcfea52c8e04dbe64bf68e2bd1211894f75a07e9022438ad713d9ee617eb64736f6c63430008140033",
  "linkReferences": {},
  "deployedLinkReferences": {}
}